:100000000C942B000C9453000C9453000C9453004C
:100010000C9453000C9453000C9453000C94530014
:100020000C9453000C9453000C9453000C94530004
:100030000C9453000C9453000C9453000C945300F4
:100040000C9453000C9453000C9453000C945300E4
:100050000C945300550011241FBECFE5D8E0DEBF3D
:10006000CDBF10E0A0E6B0E0E6E7F3E002C0059007
:100070000D92A036B107D9F710E0A0E6B0E001C0BC
:100080001D92A237B107E1F710E0C6E5D0E004C049
:100090002297FE010E94B501C435D107C9F70E941D
:1000A00068000C94B9010C94000027E042E350E092
:1000B0006AE470E080E690E00E94330126E042E3CB
:1000C00050E068E470E089E690E00E943301089512
:1000D0001F930E94ED000E944A010E949B01C49858
:1000E0000E94AD0180E690E00E9461016AE080E636
:1000F00090E00E94420180E690E00E94610182E06F
:1001000090E00E94F80064E180E690E00E944201E5
:1001100080E690E00E94610182E090E00E94F80099
:100120006EE180E690E00E94420180E690E00E944D
:10013000610182E090E00E94F80080E690E00E9479
:100140003A0182E090E00E94F80080E690E00E9490
:10015000610184E090E00E94F80089E690E00E944E
:1001600061016AE089E690E00E94420189E690E040
:100170000E94610182E090E00E94F80064E189E65B
:1001800090E00E94420189E690E00E94610182E0D5
:1001900090E00E94F8006EE189E690E00E94420142
:1001A00089E690E00E94610182E090E00E94F80000
:1001B00089E690E00E943A0182E090E00E94F80017
:1001C00089E690E00E94610110E188B3812788BB35
:1001D0008CE291E00E940C01F8CF84B38FEF84BBD6
:1001E00095B385BBBC9AC49A0895809585BB089544
:1001F0001816190684F460E070E040E058E420E04E
:10020000FA013197F1F72F5F2436D1F76F5F7F4FF7
:1002100068177907A4F308951816190664F420E006
:1002200030E043E357E0FA013197F1F72F5F3F4F9A
:1002300028173907C4F30895FC011182108282E364
:1002400090E0938382830895FC011182108282E3FF
:1002500090E0938382830895FC01758364835783C0
:10026000468320870895FC01758364835783468302
:1002700020870895DC011496ED91FC911597118269
:1002800010820895FC018AE0689FB00111247183F7
:10029000608308958C9A8D9A8F9A8E9A83EA8FBD87
:1002A0008FB580648FBD8FB580618FBD1BBC1ABCBC
:1002B00019BC18BC1EBC8EB582608EBD97989698EE
:1002C00008950F931F938C01DC011496ED91FC911E
:1002D0001597118210828C910E94F500D801149616
:1002E000ED91FC9115971182108282E090E00E94BE
:1002F0000C01D8011696ED91FC911797208181E0B1
:1003000090E018960C9002C0880F991F0A94E2F7AB
:1003100080958223808382E090E00E940C01D801C6
:100320001496ED91FC9115978D919C91918380830A
:100330001F910F9108959298929A9398939A089585
:1003400080B38695869580958170089580B3869553
:10035000869586958095817008958299FECF08953F
:100360008399FECF0895EE0FFF1F0590F491E02DC5
:060370000994F894FFCF90
:00000001FF
