:100000000C942C000C9454000C9454000C94540048
:100010000C9454000C9454000C9454000C94540010
:100020000C9454000C9454000C9454000C94540000
:100030000C9454000C9454000C9454000C945400F0
:100040000C94B4020C9454000C9454000C9454007E
:100050000C94540085007E0011241FBECFE5D8E02B
:10006000DEBFCDBF10E0A0E6B0E0E4EBFAE002C0F6
:1000700005900D92A836B107D9F710E0A8E6B0E0D8
:1000800001C01D92A838B107E1F710E0C6E5D0E045
:1000900004C02297FE010E944905C435D107C9F763
:1000A0000E94D6000C944D050C94000081309105FF
:1000B00031F0892B19F46F5F7F4FD9F008956F5F8E
:1000C0007F4FE1F727E042E350E06AE470E088E622
:1000D00090E00E94E90126E042E350E068E470E02D
:1000E00081E790E00E94E9018AE790E00E940B031B
:1000F00008958AE790E00E94A00308956FEF7FEFD4
:1001000080E090E00E94560008956FEF7FEF81E05D
:1001100090E00E9456000895DF93CF9300D000D066
:1001200000D0CDB7DEB7992787FD9095282F9A8309
:100130008983772767FD7095862F7C836B83642F77
:100140004D835E833A81482F5C817E818AE790E00F
:100150000E94030426960FB6F894DEBF0FBECDBFF3
:10016000CF91DF9108951F93DF93CF9300D000D0FC
:1001700000D0CDB7DEB749835A83162F6B837C83BB
:100180008D839E83642F88E690E00E94FE01612F9C
:1001900081E790E00E94FE0126960FB6F894DEBF3C
:1001A0000FBECDBFCF91DF911F910895EF92FF92C7
:1001B0000F931F93DF93CF93CDB7DEB72C970FB676
:1001C000F894DEBF0FBECDBF0E94AD010E94480271
:1001D0000E945F020E9477020E94A502C4980E94BA
:1001E0006402882311F50E948002882309F48AC0E2
:1001F000AC980E948F02882309F48AC0A8980E94B4
:100200009302882309F48AC0A9980E94980288233F
:1002100009F48AC0AA980E949E02882309F48AC021
:10022000AB980E9464028823F1F248E853E160E051
:100230008EE10E948C0040ED57E060E08EEC0E9461
:100240008C0048EE53E060E080E00E948C0048E8BB
:1002500053E160E084E10E948C007E010894E11C7F
:10026000F11C8E01095F1F4F0E948002882349F50F
:1002700080917A0090917B00892BD9F06AE070E040
:100280008AE790E00E94A6032F83388749875A8720
:100290006B877C87D701F80186E001900D92815031
:1002A000E1F749815A816B817C818D819E810E9419
:1002B000B3008AE090E00E94CC010E948002882373
:1002C000B9F288E690E00E94F60181E790E00E9492
:1002D000F6018AE790E00E945D030E948F02882366
:1002E00059F1A8980E949302882359F1A9980E9475
:1002F0009802882359F1AA980E949E02882359F1F6
:10030000AB98B6CFAC9A0E948F02882309F076CFC3
:10031000A89A0E949302882309F076CFA99A0E9496
:100320009802882309F076CFAA9A0E949E02882319
:1003300009F076CFAB9A53CFA89A0E9493028823F4
:10034000A9F6A99A0E9498028823A9F6AA9A0E945F
:100350009E028823A9F6AB9A8BCF84B38FEF84BB20
:1003600095B385BBBC9AC49A0895809585BB0895C2
:100370001816190684F460E070E040E058E420E0CC
:10038000FA013197F1F72F5F2436D1F76F5F7F4F76
:1003900068177907A4F308951816190664F420E085
:1003A00030E043E357E0FA013197F1F72F5F3F4F19
:1003B00028173907C4F30895FC011182108282E3E3
:1003C00090E0938382837583648357834683208779
:1003D0000895FC011182108282E390E0938382836E
:1003E000758364835783468320870895DC011496C0
:1003F000ED91FC911597118210820895DC011496FD
:10040000ED91FC911597262F332727FD309537FD69
:100410003BC0C901880F991F880F991F880F991F2A
:10042000220F331F820F931F918380831616B4F41B
:100430001696ED91FC91179780818C3809F00895FC
:10044000208181E090E018960C9002C0880F991FDF
:100450000A94E2F78095822380830895662379F3D6
:100460001696ED91FC91179780818C3041F7208191
:1004700081E090E018960C9002C0880F991F0A94B2
:10048000E2F7282B20830895309521953F4FC1CF67
:100490008C9A8D9A8F9A8E9A83EA8FBD8FB58064DD
:1004A0008FBD8FB580618FBD1BBC1ABC19BC18BC39
:1004B0001EBC8EB582608EBD9798969808959298CE
:1004C000929A9398939A089580B38695869580958D
:1004D0008170089580B38695869586958095817004
:1004E00008958299FECF08958399FECF0895B89814
:1004F000B998BA98BB98C098C198C298C398089503
:10050000B09B0BC0B19B09C0B29B07C086B3869558
:100510008695869580958170089581E0089586B3CB
:1005200080958170089586B3869580958170089531
:1005300086B38695869580958170089586B3869555
:10054000869586958095817008958AB3807C8ABB54
:100550008BB3807C8BBB80E687B98DEC86B981E05C
:1005600080936000789408951F920F920FB60F92B7
:1005700011248F9380916000833009F440C084304F
:1005800050F08530B1F1853000F585B18093810060
:1005900084E687B907C0813031F18230F1F086E01E
:1005A00080936000809160008F5F809360008091F5
:1005B0006000873018F081E080936000369A8F9158
:1005C0000F900FBE0F901F901895863041F785B1A0
:1005D0008093830080E687B9E5CF85B180937F0063
:1005E00082E687B9DFCF85B180937E0081E687B947
:1005F000D9CF85B18093820085E687B9D3CF85B105
:100600008093800083E687B9CDCFFC0113821282EC
:10061000118210820895FC011382128211821082CD
:100620000895CF92DF92EF92FF920F931F93DF9383
:10063000CF93CDB7DEB72C970FB6F894DEBF0FBEC1
:10064000CDBF7C01DC01ED91FC91309739F16E0159
:100650000894C11CD11C9601AF0186E0DA010D900F
:10066000AD01D9010D929D018150C1F7068117811D
:10067000CF010E94EF04F70111830083DE0117967A
:10068000F60186E001900D928150E1F72F813885C7
:1006900049855A856B857C8590E000C02C960FB605
:1006A000F894DEBF0FBECDBFCF91DF911F910F91A8
:1006B000FF90EF90DF90CF900895CF92DF92EF926E
:1006C000FF920F931F93DF93CF93CDB7DEB72C9795
:1006D0000FB6F894DEBF0FBECDBF8C01FC01808148
:1006E0009181892BF1F06E010894C11CD11C87E027
:1006F000E82EF12CEC0EFD1EC8010E9411032F8381
:10070000388749875A876B877C87D601F70186E04F
:1007100001900D928150E1F7F80180819181892B40
:1007200059F72C960FB6F894DEBF0FBECDBFCF9110
:10073000DF911F910F91FF90EF90DF90CF90089580
:100740000E945D0308950E945D030895AF92BF92D9
:10075000CF92DF92EF92FF920F931F93DF93CF938D
:10076000CDB7DEB72C970FB6F894DEBF0FBECDBF66
:100770006C01DC01ED91FC913097A1F184819581B0
:10078000861B970B958384835E010894A11CB11C82
:100790009501AF0186E0DA010D90AD01D9010D920E
:1007A0009D018150C1F7ED80FE801E141F0444F0AE
:1007B00006811781CF010E94EF04F60111830083A7
:1007C000FE82ED82DE011796F50186E001900D9222
:1007D0008150E1F72F81388549855A856B857C8565
:1007E00090E000C02C960FB6F894DEBF0FBECDBFD0
:1007F000CF91DF911F910F91FF90EF90DF90CF90FD
:10080000BF90AF9008950F931F93DF93CF9300D0C5
:1008100000D000D0CDB7DEB78C0129833A834B835B
:100820005C836D837E8388E090E00E944504DC0158
:10083000F80180819181892B29F1F80182819381CE
:10084000FC01B783A6839D01AE014F5F5F4F86E039
:10085000FA010190AF01F90101929F018150C1F7A6
:1008600017961C921E921697F801B383A2832696C0
:100870000FB6F894DEBF0FBECDBFCF91DF911F91B1
:100880000F910895B183A083DECFCF93DF93BC0196
:100890008230910510F462E070E0A0918600B09182
:1008A0008700ED01E0E0F0E040E050E021C0888109
:1008B00099818617970769F48A819B81309719F08F
:1008C0009383828304C09093870080938600FE0107
:1008D00034C06817790738F44115510519F08417A9
:1008E000950708F4AC01FE018A819B819C01E90116
:1008F0002097E9F641155105A9F1CA01861B970B0E
:10090000049708F4BA01E0E0F0E02AC08D919C91D0
:10091000119784179507F9F46417750781F41296F7
:100920008D919C911397309719F09383828304C023
:100930009093870080938600FD0132964CC0CA01D7
:10094000861B970BFD01E80FF91F619371930297C6
:100950008D939C9340C0FD01828193819C01D901BC
:100960001097A1F68091840090918500892B41F425
:10097000809163009091640090938500809384003F
:1009800040916500509166004115510541F44DB705
:100990005EB78091610090916200481B590B2091D5
:1009A000840030918500CA01821B930B861797073C
:1009B00080F0AB014E5F5F4F8417950750F0420FF8
:1009C000531F5093850040938400F9016193719304
:1009D00002C0E0E0F0E0CF01DF91CF910895CF9326
:1009E000DF93009709F450C0EC0122971B821A8212
:1009F000A0918600B0918700109709F140E050E087
:100A0000AC17BD0708F1BB83AA83FE012191319188
:100A1000E20FF31FAE17BF0779F48D919C911197E8
:100A2000280F391F2E5F3F4F3983288312968D91EF
:100A30009C9113979B838A834115510571F4D09340
:100A40008700C093860020C012968D919C911397C9
:100A5000AD01009711F0DC01D3CFFA01D383C2833B
:100A600021913191E20FF31FCE17DF0769F48881DE
:100A70009981280F391F2E5F3F4FFA013183208360
:100A80008A819B8193838283DF91CF910895EE0FBA
:100A9000FF1F0590F491E02D099410E0C6E5D0E029
:100AA00004C0FE010E9449052296C835D107C9F746
:040AB000F894FFCFE8
:080AB400012000880000000091
:00000001FF
