:100000000C942A000C9447000C9447000C94470071
:100010000C9447000C9447000C9447000C94470044
:100020000C9447000C9447000C9447000C94470034
:100030000C9447000C9447000C9447000C94470024
:100040000C9447000C9447000C9447000C94470014
:100050000C94470011241FBECFE5D8E0DEBFCDBF12
:1000600010E0A0E6B0E0EEE0F1E002C005900D92F5
:10007000A036B107D9F710E0A0E6B0E001C01D92AC
:10008000A036B107E1F70E9449000C9485000C945A
:1000900000001F930E945600C49811E085B3812789
:1000A00085BB8CE291E00E947500F8CF84B38FEF9E
:1000B00084BB95B385BBBC9AC49A0895809585BBD3
:1000C00008951816190684F460E070E040E058E4E2
:1000D00020E0FA013197F1F72F5F2436D1F76F5FF7
:1000E0007F4F68177907A4F308951816190664F46A
:1000F00020E030E043E357E0FA013197F1F72F5F5A
:0E0100003F4F28173907C4F30895F894FFCF36
:00000001FF
