:100000000C942C000C9454000C9454000C94540048
:100010000C9454000C9454000C9454000C94540010
:100020000C9454000C9454000C9454000C94E6036B
:100030000C9454000C9454000C9454000C945400F0
:100040000C9439010C9454000C9454000C945400FA
:100050000C94540074006D0011241FBECFE5D8E04D
:10006000DEBFCDBF10E0A0E6B0E0ECE1FBE002C0F7
:1000700005900D92A836B107D9F710E0A8E6B0E0D8
:1000800001C01D92A139B107E1F710E0C6E5D0E04B
:1000900004C02297FE010E947D05C435D107C9F72F
:1000A0000E94C4000C9481050C94000008958130D6
:1000B000910531F0892B19F46F5F7F4F49F0089556
:1000C0006F5F7F4FE1F788E690E00E945702089546
:1000D00088E690E00E94EC0208956FEF7FEF80E0E9
:1000E00090E00E94570008956FEF7FEF81E090E06D
:1000F0000E94570008950F931F93DF93CF93CDB7BE
:10010000DEB762970FB6F894DEBF0FBECDBF0E9478
:10011000C2010E943A020E943D040E948A010E948C
:1001200018010E94B50327E042E350E06AE470E062
:100130008E010F5F1F4FC8010E94DA01A2E7B0E0F5
:10014000F80189E001900D928150E1F78E01065F80
:100150001F4F26E042E350E068E470E0C8010E94CF
:10016000DA01ABE7B0E0F80189E001900D9281502F
:10017000E1F762960FB6F894DEBF0FBECDBFCF9108
:10018000DF911F910F910895FF920F931F93DF93BB
:10019000CF9300D000D000D0CDB7DEB70E947B0057
:1001A000C49885E090E00E9455048E010F5F1F4FB8
:1001B00080E1F82E0E944204882319F088B38F252D
:1001C00088BB8091680090916900892B29F162E3D6
:1001D00070E088E690E00E94F20229833A834B8324
:1001E0005C836D837E83ACE6B0E0F80186E001902D
:1001F0000D928150E1F760916C0082E790E00E94DF
:10020000EF0160916E008BE790E00E94EF0182E3C6
:1002100090E00E946904CECFC49A60E082E790E04B
:100220000E94EF0160E08BE790E00E94EF01EFCFCA
:100230008AB3807C8ABB8BB3807C8BBB80E687B91A
:100240008DEC86B981E08093600078940895809168
:100250008400089580918500089580918600089516
:100260008091870008958091880008958091890089
:1002700008951F920F920FB60F9211248F938091C1
:100280006000833009F440C0843050F08530B1F113
:10029000853000F585B18093870084E687B907C073
:1002A000813031F18230F1F086E0809360008091FE
:1002B00060008F5F8093600080916000873018F04D
:1002C00081E080936000369A8F910F900FBE0F905F
:1002D0001F901895863041F785B18093890080E69C
:1002E00087B9E5CF85B18093850082E687B9DFCFF6
:1002F00085B18093840081E687B9D9CF85B1809399
:10030000880085E687B9D3CF85B18093860083E6E0
:1003100087B9CDCFB898B998BA98BB98C098C1980A
:10032000C298C3980895B09915C092E0B19904C0DD
:1003300083E0989F902D1124B29904C085E0989F86
:10034000902D1124B39904C087E0989F902D11241B
:10035000892F089591E0EACF86B380958170089542
:1003600086B3869580958170089586B38695869527
:1003700080958170089586B386958695869580953B
:100380008170089584B38FEF84BB95B385BBBC9A0D
:10039000C49A0895809585BB0895FC01118210824E
:1003A00082E390E0938382837583648357834683DB
:1003B00020870895FC011182108282E390E09383EC
:1003C0008283758364835783468320870895DC0185
:1003D0001496ED91FC911597118210820895DC011D
:1003E0001496ED91FC911597462F552747FD509592
:1003F0009A0157FD3AC0C901880F991F880F991FAC
:10040000880F991F220F331F820F931F91838083C0
:100410001616ACF41696ED91FC911797208181E0A9
:1004200090E018960C90189702C0880F991F0A94B4
:10043000E2F78095822380834D935C930895662331
:10044000D9F31696ED91FC911797208181E090E009
:1004500018960C90189702C0880F991F0A94E2F71B
:10046000282B20834D935C93089522273327241B48
:10047000350BC1CF8C9A8D9A8F9A8E9A83EA8FBD55
:100480008FB580648FBD8FB580618FBD1BBC1ABCDA
:1004900019BC18BC1EBC8EB582608EBD979896980C
:1004A0000895FC0113821282118210820895FC01CA
:1004B00013821282118210820895CF92DF92EF92FE
:1004C000FF920F931F93DF93CF93CDB7DEB72C9797
:1004D0000FB6F894DEBF0FBECDBF7C01DC01ED91FD
:1004E000FC91309739F16E010894C11CD11C960122
:1004F000AF0186E0DA010D90AD01D9010D929D01A9
:100500008150C1F706811781CF010E942305F701B1
:1005100011830083DE011796F60186E001900D92AB
:100520008150E1F72F81388549855A856B857C8517
:1005300090E000C02C960FB6F894DEBF0FBECDBF82
:10054000CF91DF911F910F91FF90EF90DF90CF90AF
:100550000895CF92DF92EF92FF920F931F93DF9354
:10056000CF93CDB7DEB72C970FB6F894DEBF0FBE92
:10057000CDBF8C01FC0180819181892BF1F06E014E
:100580000894C11CD11C87E0E82EF12CEC0EFD1E56
:10059000C8010E945D022F83388749875A876B877D
:1005A0007C87D601F70186E001900D928150E1F73A
:1005B000F80180819181892B59F72C960FB6F89418
:1005C000DEBF0FBECDBFCF91DF911F910F91FF9086
:1005D000EF90DF90CF9008950E94A90208950E94A5
:1005E000A9020895AF92BF92CF92DF92EF92FF924D
:1005F0000F931F93DF93CF93CDB7DEB72C970FB632
:10060000F894DEBF0FBECDBF6C01DC01ED91FC9113
:100610003097A1F184819581861B970B9583848304
:100620005E010894A11CB11C9501AF0186E0DA01BE
:100630000D90AD01D9010D929D018150C1F7ED8062
:10064000FE801E141F0444F006811781CF010E9412
:100650002305F60111830083FE82ED82DE011796E9
:10066000F50186E001900D928150E1F72F813885E8
:1006700049855A856B857C8590E000C02C960FB625
:10068000F894DEBF0FBECDBFCF91DF911F910F91C8
:10069000FF90EF90DF90CF90BF90AF9008950F93B1
:1006A0001F93DF93CF9300D000D000D0CDB7DEB73B
:1006B0008C0129833A834B835C836D837E8388E03E
:1006C00090E00E947904DC01F80180819181892BFE
:1006D00029F1F80182819381FC01B783A6839D01F2
:1006E000AE014F5F5F4F86E0FA010190AF01F90163
:1006F00001929F018150C1F717961C921E92169786
:10070000F801B383A28326960FB6F894DEBF0FBE1E
:10071000CDBFCF91DF911F910F910895B183A08339
:10072000DECFDF93CF9300D000D000D0CDB7DEB7BF
:10073000772767FD7095E62F7A836983552747FDF4
:1007400050955C834B83622F2D833E832E2F3A81FD
:100750005C817E810E944F0326960FB6F894DEBF1F
:100760000FBECDBFCF91DF91089581E089BF80EFAB
:1007700082BF84E083BF7894D69AD79ADE98DF98B8
:1007800081E080938B0080938C00089582E08093B9
:100790008B00089582E080938C00089583E080931D
:1007A0008B00089583E080938C00089581E080930E
:1007B0008B00089581E080938C00089584E08093FD
:1007C0008B00089584E080938C0008951F920F920F
:1007D0000FB60F9211248F9380EF82BF80918A0011
:1007E0008232D9F180918A00843269F180918A0045
:1007F0008532F9F080918A00863289F080918A00F2
:100800008F5F80938A0080918A00883211F4109261
:100810008A008F910F900FBE0F901F9018958091B6
:100820008B008111DE9880918C00882339F3DF984A
:10083000E5CF80918B008430F1F080918C00843082
:10084000C9F6DF98D7CF80918B00823091F08091EC
:100850008C00823059F6DF98C9CF80918B008230AE
:1008600008F0DE9A80918C00823008F4BBCFDF9ACA
:10087000B9CFDE98ECCFDE98E0CF9298929A939819
:10088000939A089580B38695869580958170089592
:1008900080B3869586958695809581700895829916
:1008A000FECF08958399FECF08951816190684F493
:1008B00060E070E040E058E420E0FA013197F1F7A1
:1008C0002F5F2436D1F76F5F7F4F68177907A4F346
:1008D00008951816190664F420E030E043E357E069
:1008E000FA013197F1F72F5F3F4F28173907C4F30B
:1008F0000895CF93DF93BC018230910510F462E03C
:1009000070E0A0918F00B0919000ED01E0E0F0E088
:1009100040E050E021C0888199818617970769F4EB
:100920008A819B81309719F09383828304C09093CE
:10093000900080938F00FE0134C06817790738F467
:100940004115510519F08417950708F4AC01FE0113
:100950008A819B819C01E9012097E9F641155105A7
:10096000A9F1CA01861B970B049708F4BA01E0E0CD
:10097000F0E02AC08D919C91119784179507F9F4A6
:100980006417750781F412968D919C911397309797
:1009900019F09383828304C09093900080938F001A
:1009A000FD0132964CC0CA01861B970BFD01E80F72
:1009B000F91F6193719302978D939C9340C0FD0141
:1009C000828193819C01D9011097A1F680918D00BD
:1009D00090918E00892B41F4809163009091640086
:1009E00090938E0080938D00409165005091660039
:1009F0004115510541F44DB75EB78091610090916A
:100A00006200481B590B20918D0030918E00CA0165
:100A1000821B930B8617970780F0AB014E5F5F4FE9
:100A20008417950750F0420F531F50938E00409348
:100A30008D00F9016193719302C0E0E0F0E0CF0115
:100A4000DF91CF910895CF93DF93009709F450C0C1
:100A5000EC0122971B821A82A0918F00B091900026
:100A6000109709F140E050E0AC17BD0708F1BB83D7
:100A7000AA83FE0121913191E20FF31FAE17BF0748
:100A800079F48D919C911197280F391F2E5F3F4F5C
:100A90003983288312968D919C9113979B838A8327
:100AA0004115510571F4D0939000C0938F0020C080
:100AB00012968D919C911397AD01009711F0DC0176
:100AC000D3CFFA01D383C28321913191E20FF31F77
:100AD000CE17DF0769F488819981280F391F2E5FAF
:100AE0003F4FFA01318320838A819B8193838283E4
:100AF000DF91CF910895EE0FFF1F0590F491E02D47
:100B0000099410E0C6E5D0E004C0FE010E947D0516
:0C0B10002296C835D107C9F7F894FFCF32
:080B1C0001200091000000001F
:00000001FF
