:100000000C942C000C9454000C9454000C94540048
:100010000C9454000C9454000C9454000C94540010
:100020000C9454000C9454000C9454000C94540000
:100030000C9454000C9454000C9454000C945400F0
:100040000C94D3010C9454000C9454000C94540060
:100050000C94540085007E0011241FBECFE5D8E02B
:10006000DEBFCDBF10E0A0E6B0E0EAE3F9E002C0F9
:1000700005900D92A836B107D9F710E0A8E6B0E0D8
:1000800001C01D92AE38B107E1F710E0C6E5D0E03F
:1000900004C02297FE010E948C04C435D107C9F721
:1000A0000E948C000C9490040C9400008130910507
:1000B00031F0892B19F46F5F7F4FD9F008956F5F8E
:1000C0007F4FE1F727E042E350E06AE470E088E622
:1000D00090E00E94EB0026E042E350E068E470E02C
:1000E00081E790E00E94EB008AE790E00E942A02FC
:1000F00008958AE790E00E94BF0208956FEF7FEFB6
:1001000080E090E00E94560008956FEF7FEF81E05D
:1001100090E00E94560008950F931F930E94AF0035
:100120000E944B010E9462010E947A010E94B2016A
:10013000C49800E111E007C085B3812785BB82E345
:1001400090E00E94CE000E9467018823A9F388B343
:10015000802788BB88EE93E00E94CE00EDCF84B369
:100160008FEF84BB95B385BBBC9AC49A08958095E4
:1001700085BB08951816190684F460E070E040E02D
:1001800058E420E0FA013197F1F72F5F2436D1F7D8
:100190006F5F7F4F68177907A4F308951816190643
:1001A00064F420E030E043E357E0FA013197F1F7DF
:1001B0002F5F3F4F28173907C4F30895FC011182C0
:1001C000108282E390E093838283758364835783F4
:1001D000468320870895FC011182108282E390E01B
:1001E000938382837583648357834683208708952E
:1001F000DC011496ED91FC911597118210820895FF
:10020000DC011496ED91FC911597462F552747FD7B
:1002100050959A0157FD3AC0C901880F991F880F60
:10022000991F880F991F220F331F820F931F9183ED
:1002300080831616ACF41696ED91FC9117972081E9
:1002400081E090E018960C90189702C0880F991FD3
:100250000A94E2F78095822380834D935C930895FE
:100260006623D9F31696ED91FC911797208181E0D2
:1002700090E018960C90189702C0880F991F0A9466
:10028000E2F7282B20834D935C9308952227332790
:10029000241B350BC1CF8C9A8D9A8F9A8E9A83EA44
:1002A0008FBD8FB580648FBD8FB580618FBD1BBC46
:1002B0001ABC19BC18BC1EBC8EB582608EBD979846
:1002C000969808959298929A9398939A089580B3E5
:1002D0008695869580958170089580B386958695DC
:1002E00086958095817008958299FECF08958399AF
:1002F000FECF0895B898B998BA98BB98C098C1989D
:10030000C298C3980895B09915C092E0B19904C0FD
:1003100083E0989F902D1124B29904C085E0989FA6
:10032000902D1124B39904C087E0989F902D11243B
:10033000892F089591E0EACF86B380958170089562
:1003400086B3869580958170089586B38695869547
:1003500080958170089586B386958695869580955B
:10036000817008958AB3807C8ABB8BB3807C8BBB01
:1003700080E687B98DEC86B981E08093600078943F
:10038000089580918400089580918500089580915A
:1003900086000895809187000895809188000895CF
:1003A0008091890008951F920F920FB60F92112429
:1003B0008F9380916000833009F440C0843050F006
:1003C0008530B1F1853000F585B18093870084E6F2
:1003D00087B907C0813031F18230F1F086E0809337
:1003E0006000809160008F5F80936000809160006A
:1003F000873018F081E080936000369A8F910F90DB
:100400000FBE0F901F901895863041F785B18093ED
:10041000890080E687B9E5CF85B18093850082E6C3
:1004200087B9DFCF85B18093840081E687B9D9CFC2
:1004300085B18093880085E687B9D3CF85B1809355
:10044000860083E687B9CDCFFC0113821282118228
:1004500010820895FC011382128211821082089585
:10046000CF92DF92EF92FF920F931F93DF93CF9380
:10047000CDB7DEB72C970FB6F894DEBF0FBECDBF59
:100480007C01DC01ED91FC91309739F16E0108940B
:10049000C11CD11C9601AF0186E0DA010D90AD01BF
:1004A000D9010D929D018150C1F706811781CF01BD
:1004B0000E943204F70111830083DE011796F601D2
:1004C00086E001900D928150E1F72F8138854985B2
:1004D0005A856B857C8590E000C02C960FB6F89409
:1004E000DEBF0FBECDBFCF91DF911F910F91FF9067
:1004F000EF90DF90CF900895CF92DF92EF92FF922E
:100500000F931F93DF93CF93CDB7DEB72C970FB622
:10051000F894DEBF0FBECDBF8C01FC0180819181BC
:10052000892BF1F06E010894C11CD11C87E0E82EE4
:10053000F12CEC0EFD1EC8010E9430022F8338877B
:1005400049875A876B877C87D601F70186E001903F
:100550000D928150E1F7F80180819181892B59F743
:100560002C960FB6F894DEBF0FBECDBFCF91DF91B2
:100570001F910F91FF90EF90DF90CF9008950E9410
:100580007C0208950E947C020895AF92BF92CF92A0
:10059000DF92EF92FF920F931F93DF93CF93CDB72C
:1005A000DEB72C970FB6F894DEBF0FBECDBF6C013F
:1005B000DC01ED91FC913097A1F184819581861B3E
:1005C000970B958384835E010894A11CB11C95014F
:1005D000AF0186E0DA010D90AD01D9010D929D01C8
:1005E0008150C1F7ED80FE801E141F0444F0068187
:1005F0001781CF010E943204F60111830083FE822D
:10060000ED82DE011796F50186E001900D92815092
:10061000E1F72F81388549855A856B857C8590E087
:1006200000C02C960FB6F894DEBF0FBECDBFCF91A1
:10063000DF911F910F91FF90EF90DF90CF90BF90CF
:10064000AF9008950F931F93DF93CF9300D000D006
:1006500000D0CDB7DEB78C0129833A834B835C830E
:100660006D837E8388E090E00E948803DC01F801BE
:1006700080819181892B29F1F80182819381FC018C
:10068000B783A6839D01AE014F5F5F4F86E0FA01FD
:100690000190AF01F90101929F018150C1F71796B6
:1006A0001C921E921697F801B383A28326960FB66A
:1006B000F894DEBF0FBECDBFCF91DF911F910F9198
:1006C0000895B183A083DECFDF93CF9300D000D015
:1006D00000D0CDB7DEB7772767FD7095E62F7A8318
:1006E0006983552747FD50955C834B83622F2D838B
:1006F0003E832E2F3A815C817E810E9422032696C2
:100700000FB6F894DEBF0FBECDBFCF91DF91089535
:10071000CF93DF93BC018230910510F462E070E06A
:10072000A0918C00B0918D00ED01E0E0F0E040E0A0
:1007300050E021C0888199818617970769F48A81E2
:100740009B81309719F09383828304C090938D002E
:1007500080938C00FE0134C06817790738F4411586
:10076000510519F08417950708F4AC01FE018A8140
:100770009B819C01E9012097E9F641155105A9F1FA
:10078000CA01861B970B049708F4BA01E0E0F0E079
:100790002AC08D919C91119784179507F9F46417DD
:1007A000750781F412968D919C911397309719F0EB
:1007B0009383828304C090938D0080938C00FD010D
:1007C00032964CC0CA01861B970BFD01E80FF91F3A
:1007D0006193719302978D939C9340C0FD01828138
:1007E00093819C01D9011097A1F680918A00909184
:1007F0008B00892B41F48091630090916400909369
:100800008B0080938A0040916500509166004115ED
:10081000510541F44DB75EB780916100909162003F
:10082000481B590B20918A0030918B00CA01821B12
:10083000930B8617970780F0AB014E5F5F4F8417CD
:10084000950750F0420F531F50938B0040938A003E
:10085000F9016193719302C0E0E0F0E0CF01DF9114
:10086000CF910895CF93DF93009709F450C0EC0126
:1008700022971B821A82A0918C00B0918D00109754
:1008800009F140E050E0AC17BD0708F1BB83AA8333
:10089000FE0121913191E20FF31FAE17BF0779F4EA
:1008A0008D919C911197280F391F2E5F3F4F3983EF
:1008B000288312968D919C9113979B838A8341156F
:1008C000510571F4D0938D00C0938C0020C0129616
:1008D0008D919C911397AD01009711F0DC01D3CF5E
:1008E000FA01D383C28321913191E20FF31FCE1716
:1008F000DF0769F488819981280F391F2E5F3F4FE8
:10090000FA01318320838A819B8193838283DF91E3
:10091000CF910895EE0FFF1F0590F491E02D0994FB
:1009200010E0C6E5D0E004C0FE010E948C042296CF
:0A093000C835D107C9F7F894FFCFCE
:08093A000120008E0000000006
:00000001FF
