:100000000C942B000C9453000C9453000C9453004C
:100010000C9453000C9453000C9453000C94530014
:100020000C9453000C9453000C9453000C94530004
:100030000C9453000C9453000C9453000C945300F4
:100040000C94BF010C9453000C9453000C94530077
:100050000C945300550011241FBECFE5D8E0DEBF3D
:10006000CDBF10E0A0E6B0E0ECE1F7E002C0059003
:100070000D92A836B107D9F710E0A8E6B0E001C0AC
:100080001D92A438B107E1F710E0C6E5D0E004C046
:100090002297FE010E948803C435D107C9F70E9448
:1000A00068000C948C030C94000027E042E350E0BD
:1000B0006AE470E088E690E00E94E60026E042E311
:1000C00050E068E470E081E790E00E94E600089567
:1000D0001F930E94AA000E9403010E9479010E94BE
:1000E00091010E94B001C4980E947E018823C1F44E
:1000F0000E949A018823E9F0A8980E949E01882313
:10010000E9F0A9980E94A3018823E9F0AA980E9427
:10011000A9018823E9F0AB980E947E01882341F36E
:1001200010E188B3812788BB8CE291E00E94C9006E
:10013000F8CFA89A0E949E01882319F7A99A0E94D5
:10014000A301882319F7AA9A0E94A901882319F705
:10015000AB9ACACF84B38FEF84BB95B385BBBC9AEF
:10016000C49A0895809585BB08951816190684F4DD
:1001700060E070E040E058E420E0FA013197F1F7E8
:100180002F5F2436D1F76F5F7F4F68177907A4F38D
:1001900008951816190664F420E030E043E357E0B0
:1001A000FA013197F1F72F5F3F4F28173907C4F352
:1001B0000895FC011182108282E390E09383828390
:1001C000758364835783468320870895FC011182D9
:1001D000108282E390E093838283758364835783E4
:1001E000468320870895DC011496ED91FC911597C4
:1001F000118210820895FC018AE0689FB0011124E9
:100200007183608308958C9A8D9A8F9A8E9A83EA6F
:100210008FBD8FB580648FBD8FB580618FBD1BBCD6
:100220001ABC19BC18BC1EBC8EB582608EBD9798D6
:10023000969808950F931F938C01DC011496ED910D
:10024000FC9115971182108282E090E00E94C90013
:10025000D8011696ED91FC911797208181E090E0EE
:1002600018960C9002C0880F991F0A94E2F7282B69
:10027000208382E090E00E94C900D8011496ED919D
:10028000FC9115978D919C91918380831F910F9183
:1002900008950F931F938C01DC011496ED91FC914E
:1002A00015971182108282E090E00E94C900D80167
:1002B0001696ED91FC911797208181E090E01896B9
:1002C0000C9002C0880F991F0A94E2F78095822350
:1002D000808382E090E00E94C900D8011496ED91DD
:1002E000FC9115978D919C91918380831F910F9123
:1002F00008959298929A9398939A089580B38695C8
:10030000869580958170089580B3869586958695AB
:100310008095817008958299FECF08958399FECFCC
:100320000895B898B998BA98BB98C098C198C298DF
:10033000C398089586B380958170089586B3869595
:1003400080958170089586B3869586958095817095
:10035000089586B3869586958695809581700895D3
:100360008AB3807C8ABB8BB3807C8BBB80E687B9E9
:100370008DEC86B981E080936000789408951F9297
:100380000F920FB60F9211248F93809160008330EB
:1003900009F440C0843050F08530B1F1853000F56B
:1003A00085B180937D0084E687B907C0813031F143
:1003B0008230F1F086E080936000809160008F5F72
:1003C0008093600080916000873018F081E0809316
:1003D0006000369A8F910F900FBE0F901F90189566
:1003E000863041F785B180937F0080E687B9E5CFFD
:1003F00085B180937B0082E687B9DFCF85B180939A
:100400007A0081E687B9D9CF85B180937E0085E6F1
:1004100087B9D3CF85B180937C0083E687B9CDCFF0
:10042000FC0113821282118210820895FC01138252
:100430001282118210820895CF92DF92EF92FF9282
:100440000F931F93CF93DF93EC01E881F9813097ED
:10045000C1F0F080E180D280C38004811581CF019A
:100460000E942E03198308836F2D7E2D8D2D9C2DC8
:10047000DF91CF911F910F91FF90EF90DF90CF9080
:100480000895F6CFCF93DF93EC0188819981892B72
:1004900039F0CE010E941C0288819981892BC9F70D
:1004A000DF91CF9108950E94420208950E94420276
:1004B0000895EF92FF920F931F93CF93DF93EC0178
:1004C0007A018B0186E090E00E948402DC01888141
:1004D0009981892BB1F0EA81FB81B583A483ED92E8
:1004E000FD920D931C93139715961C921E921497D0
:1004F000BB83AA83DF91CF911F910F91FF90EF9063
:100500000895B983A883EBCFCF93DF93BC018230EA
:10051000910510F462E070E0A0918200B091830038
:10052000ED01E0E0F0E040E050E021C088819981F9
:100530008617970769F48A819B81309719F0938316
:10054000828304C09093830080938200FE0134C0B4
:100550006817790738F44115510519F08417950784
:1005600008F4AC01FE018A819B819C01E90120977E
:10057000E9F641155105A9F1CA01861B970B0497AD
:1005800008F4BA01E0E0F0E02AC08D919C91119747
:1005900084179507F9F46417750781F412968D9105
:1005A0009C911397309719F09383828304C09093A2
:1005B000830080938200FD0132964CC0CA01861BE5
:1005C000970BFD01E80FF91F6193719302978D93CB
:1005D0009C9340C0FD01828193819C01D9011097B9
:1005E000A1F68091800090918100892B41F4809147
:1005F000630090916400909381008093800040910B
:100600006500509166004115510541F44DB75EB744
:100610008091610090916200481B590B20918000ED
:1006200030918100CA01821B930B8617970780F0D7
:10063000AB014E5F5F4F8417950750F0420F531F79
:100640005093810040938000F9016193719302C03F
:10065000E0E0F0E0CF01DF91CF910895CF93DF93F9
:10066000009709F450C0EC0122971B821A82A091D6
:100670008200B0918300109709F140E050E0AC1780
:10068000BD0708F1BB83AA83FE0121913191E20FDE
:10069000F31FAE17BF0779F48D919C911197280F26
:1006A000391F2E5F3F4F3983288312968D919C917D
:1006B00013979B838A834115510571F4D09383006E
:1006C000C093820020C012968D919C911397AD012A
:1006D000009711F0DC01D3CFFA01D383C2832191BB
:1006E0003191E20FF31FCE17DF0769F488819981FA
:1006F000280F391F2E5F3F4FFA01318320838A81F3
:100700009B8193838283DF91CF910895EE0FFF1F2A
:0C0710000590F491E02D0994F894FFCFBF
:08071C00012000840000000030
:00000001FF
