:100000000C942C000C9454000C9454000C94540048
:100010000C9454000C9454000C9454000C94540010
:100020000C9454000C9454000C9454000C94540000
:100030000C9454000C9454000C9454000C945400F0
:100040000C9470020C9454000C9454000C945400C2
:100050000C94540085007E0011241FBECFE5D8E02B
:10006000DEBFCDBF10E0A0E6B0E0E4E7FAE002C0FA
:1000700005900D92A836B107D9F710E0A8E6B0E0D8
:1000800001C01D92A039B107E1F710E0C6E5D0E04C
:1000900004C02297FE010E942905C435D107C9F783
:1000A0000E948C000C942D050C9400008130910569
:1000B00031F0892B19F46F5F7F4FD9F008956F5F8E
:1000C0007F4FE1F727E042E350E06AE470E088E622
:1000D00090E00E949A0126E042E350E068E470E07C
:1000E00081E790E00E949A018AE790E00E94C702AF
:1000F00008958AE790E00E945C0308956FEF7FEF18
:1001000080E090E00E94560008956FEF7FEF81E05D
:1001100090E00E9456000895EF92FF920F931F9374
:10012000DF93CF9300D000D000D0CDB7DEB70E94D0
:100130005E010E94FA010E9411020E9429020E949F
:100140006102C49828EE33E048E268E28AE790E072
:100150000E94010428E433E048ED68E28AE790E079
:100160000E94010428EE33E048E268E28AE790E06A
:100170000E94010481E00E94660101E010E07E011E
:100180000894E11CF11C0E941C02882379F0000FE6
:10019000111F093011050CF449C001E010E081E0A5
:1001A0000E94660184E690E00E947D010E94160292
:1001B000882371F001301105D9F10230110541F4A5
:1001C00020E137E248E268E28AE790E00E94010419
:1001D00080917A0090917B00892BC1F16AE070E0F8
:1001E0008AE790E00E94620329833A834B835C8311
:1001F0006D837E83AEE7B0E0F70186E001900D925B
:100200008150E1F760917E0088E690E00E94AF01A6
:100210006091800081E790E00E94AF0182B30E946C
:1002200066018AE090E00E947D01ADCF802FB8CFBB
:1002300020E137E24AE06AE08AE790E00E940104A8
:1002400080917A0090917B00892B41F6C49A82B309
:100250000E94660160E088E690E00E94AF0160E0E5
:1002600081E790E00E94AF01DCCF0E9432028093D0
:100270008500813019F0809184008111089581E01A
:10028000809384008AE790E00E94190380918500A2
:10029000863059F0833291F728EB3BE048E268E280
:1002A0008AE790E00E940104089528EB3BE048EDC6
:1002B00068ED8AE790E00E940104089584B38FEF0F
:1002C00084BB95B385BBBC9AC49A0895809585BBC1
:1002D00008951816190684F460E070E040E058E4D0
:1002E00020E0FA013197F1F72F5F2436D1F76F5FE5
:1002F0007F4F68177907A4F308951816190664F458
:1003000020E030E043E357E0FA013197F1F72F5F47
:100310003F4F28173907C4F30895FC01118210825A
:1003200082E390E09383828375836483578346835B
:1003300020870895FC011182108282E390E093836C
:100340008283758364835783468320870895DC0105
:100350001496ED91FC911597118210820895DC019D
:100360001496ED91FC911597462F552747FD509512
:100370009A0157FD3AC0C901880F991F880F991F2C
:10038000880F991F220F331F820F931F9183808341
:100390001616ACF41696ED91FC911797208181E02A
:1003A00090E018960C90189702C0880F991F0A9435
:1003B000E2F78095822380834D935C9308956623B2
:1003C000D9F31696ED91FC911797208181E090E08A
:1003D00018960C90189702C0880F991F0A94E2F79C
:1003E000282B20834D935C93089522273327241BC9
:1003F000350BC1CF8C9A8D9A8F9A8E9A83EA8FBDD6
:100400008FB580648FBD8FB580618FBD1BBC1ABC5A
:1004100019BC18BC1EBC8EB582608EBD979896988C
:1004200008959298929A9398939A089580B3869596
:10043000869580958170089580B38695869586957A
:100440008095817008958299FECF08958399FECF9B
:100450000895B898B998BA98BB98C098C198C298AE
:10046000C3980895B09915C092E0B19904C083E093
:10047000989F902D1124B29904C085E0989F902DEB
:100480001124B39904C087E0989F902D1124892FDF
:10049000089591E0EACF86B380958170089586B380
:1004A000869580958170089586B38695869580950A
:1004B0008170089586B3869586958695809581701E
:1004C00008958AB3807C8ABB8BB3807C8BBB80E62B
:1004D00087B98DEC86B981E08093600078940895A7
:1004E0001F920F920FB60F9211248F93809160008C
:1004F000833009F440C0843050F08530B1F185304C
:1005000000F585B18093890084E687B907C0813002
:1005100031F18230F1F086E08093600080916000DC
:100520008F5F8093600080916000873018F081E0D9
:1005300080936000369A8F910F900FBE0F901F909E
:100540001895863041F785B180938B0080E687B996
:10055000E5CF85B18093870082E687B9DFCF85B18B
:100560008093860081E687B9D9CF85B180938A00D0
:1005700085E687B9D3CF85B18093880083E687B9B4
:10058000CDCFFC0113821282118210820895FC01EA
:1005900013821282118210820895CF92DF92EF921D
:1005A000FF920F931F93DF93CF93CDB7DEB72C97B6
:1005B0000FB6F894DEBF0FBECDBF7C01DC01ED911C
:1005C000FC91309739F16E010894C11CD11C960141
:1005D000AF0186E0DA010D90AD01D9010D929D01C8
:1005E0008150C1F706811781CF010E94CF04F70126
:1005F00011830083DE011796F60186E001900D92CB
:100600008150E1F72F81388549855A856B857C8536
:1006100090E000C02C960FB6F894DEBF0FBECDBFA1
:10062000CF91DF911F910F91FF90EF90DF90CF90CE
:100630000895CF92DF92EF92FF920F931F93DF9373
:10064000CF93CDB7DEB72C970FB6F894DEBF0FBEB1
:10065000CDBF8C01FC0180819181892BF1F06E016D
:100660000894C11CD11C87E0E82EF12CEC0EFD1E75
:10067000C8010E94CD022F83388749875A876B872C
:100680007C87D601F70186E001900D928150E1F759
:10069000F80180819181892B59F72C960FB6F89437
:1006A000DEBF0FBECDBFCF91DF911F910F91FF90A5
:1006B000EF90DF90CF9008950E94190308950E9453
:1006C00019030895AF92BF92CF92DF92EF92FF92FB
:1006D0000F931F93DF93CF93CDB7DEB72C970FB651
:1006E000F894DEBF0FBECDBF6C01DC01ED91FC9133
:1006F0003097A1F184819581861B970B9583848324
:100700005E010894A11CB11C9501AF0186E0DA01DD
:100710000D90AD01D9010D929D018150C1F7ED8081
:10072000FE801E141F0444F006811781CF010E9431
:10073000CF04F60111830083FE82ED82DE0117965D
:10074000F50186E001900D928150E1F72F81388507
:1007500049855A856B857C8590E000C02C960FB644
:10076000F894DEBF0FBECDBFCF91DF911F910F91E7
:10077000FF90EF90DF90CF90BF90AF9008950F93D0
:100780001F93DF93CF9300D000D000D0CDB7DEB75A
:100790008C0129833A834B835C836D837E8388E05D
:1007A00090E00E942504DC01F80180819181892B71
:1007B00029F1F80182819381FC01B783A6839D0111
:1007C000AE014F5F5F4F86E0FA010190AF01F90182
:1007D00001929F018150C1F717961C921E921697A5
:1007E000F801B383A28326960FB6F894DEBF0FBE3E
:1007F000CDBFCF91DF911F910F910895B183A08359
:10080000DECFDF93CF9300D000D000D0CDB7DEB7DE
:10081000772767FD7095E62F7A836983552747FD13
:1008200050955C834B83622F2D833E832E2F3A811C
:100830005C817E810E94BF0326960FB6F894DEBFCE
:100840000FBECDBFCF91DF910895CF93DF93BC0151
:100850008230910510F462E070E0A0918E00B091BA
:100860008F00ED01E0E0F0E040E050E021C0888141
:1008700099818617970769F48A819B81309719F0CF
:100880009383828304C090938F0080938E00FE0137
:1008900034C06817790738F44115510519F08417E9
:1008A000950708F4AC01FE018A819B819C01E90156
:1008B0002097E9F641155105A9F1CA01861B970B4E
:1008C000049708F4BA01E0E0F0E02AC08D919C9111
:1008D000119784179507F9F46417750781F4129638
:1008E0008D919C911397309719F09383828304C064
:1008F00090938F0080938E00FD0132964CC0CA0108
:10090000861B970BFD01E80FF91F61937193029706
:100910008D939C9340C0FD01828193819C01D901FC
:100920001097A1F680918C0090918D00892B41F455
:10093000809163009091640090938D0080938C006F
:1009400040916500509166004115510541F44DB745
:100950005EB78091610090916200481B590B209115
:100960008C0030918D00CA01821B930B861797076C
:1009700080F0AB014E5F5F4F8417950750F0420F38
:10098000531F50938D0040938C00F9016193719334
:1009900002C0E0E0F0E0CF01DF91CF910895CF9366
:1009A000DF93009709F450C0EC0122971B821A8252
:1009B000A0918E00B0918F00109709F140E050E0B7
:1009C000AC17BD0708F1BB83AA83FE0121913191C9
:1009D000E20FF31FAE17BF0779F48D919C91119729
:1009E000280F391F2E5F3F4F3983288312968D9130
:1009F0009C9113979B838A834115510571F4D09381
:100A00008F00C0938E0020C012968D919C911397F9
:100A1000AD01009711F0DC01D3CFFA01D383C2837B
:100A200021913191E20FF31FCE17DF0769F488811E
:100A30009981280F391F2E5F3F4FFA0131832083A0
:100A40008A819B8193838283DF91CF910895EE0FFA
:100A5000FF1F0590F491E02D099410E0C6E5D0E069
:100A600004C0FE010E9429052296C835D107C9F7A6
:040A7000F894FFCF28
:080A74000120009000000000C9
:00000001FF
