:100000000C942C000C9454000C9454000C94540048
:100010000C9454000C9454000C9454000C94540010
:100020000C9454000C9454000C9454000C94540000
:100030000C9454000C9454000C9454000C945400F0
:100040000C94CF020C9454000C9454000C94540063
:100050000C94540085007E0011241FBECFE5D8E02B
:10006000DEBFCDBF10E0A0E6B0E0E8EEF1E102C0F7
:1000700005900D92A037B107D9F710E0A0E7B0E0E6
:1000800001C01D92A839B107E1F710E0C6E5D0E044
:1000900004C02297FE010E94E308C435D107C9F7C6
:1000A0000E94F9000C94E7080C940000813091053F
:1000B00031F0892B19F46F5F7F4FD9F008956F5F8E
:1000C0007F4FE1F727E042E350E06AE470E082E727
:1000D00090E00E94E70126E042E350E068E470E02F
:1000E0008BE790E00E94E70184E890E00E942603FD
:1000F000089584E890E00E94BB0308956FEF7FEFBE
:1001000080E090E00E94560008956FEF7FEF81E05D
:1001100090E00E9456000895EF92FF920F931F9374
:100120007B018C0120E030E040E050E00E947E0541
:100130008823BCF020E030E040E251E4C801B70180
:100140000E9484040E94AE059B01AC014EE162E373
:1001500084E890E00E9460041F910F91FF90EF905F
:10016000089520E030E040E251ECC801B7010E9460
:1001700084040E94AE059B01AC0142E36EE184E879
:1001800090E00E9460041F910F91FF90EF900895FE
:1001900025E030E0482F682F84E890E00E9460045A
:1001A00008958A30F9F08B3074F0853181F0833214
:1001B000A9F084E10E94C80060E070E080E09FE365
:1001C0000E948C000895823011F0833091F760E036
:1001D00070E080E09FE30E948C0008958CEE0E9406
:1001E000C800089560E070E080E09FEB0E948C0002
:1001F00008951F930E94AB010E9447020E945E0275
:100200000E9476020E94AE02C4980E946302882374
:1002100009F072C00E9498028823C9F0A8980E9431
:100220009C028823C9F0A9980E94A1028823C9F0E2
:10023000AA980E94A7028823C9F0AB980E94630283
:10024000882309F059C00E949802882339F7A89A98
:100250000E949C02882339F7A99A0E94A102882350
:1002600039F7AA9A0E94A702882339F7AB9ACDCF13
:10027000A8980E949C02882309F449C0A9980E946A
:10028000A102882309F449C0AA980E94A7028823E2
:1002900009F449C0AB980E947F02982F80937100A7
:1002A000813071F080917000981751F084E890E0EF
:1002B0000E94780380917100809370000E94D100A9
:1002C000E0918400F09185003097E1F1848195817F
:1002D00001979583848312816081892B31F182E7B4
:1002E00090E00E94FC01612F8BE790E00E94FC01EE
:1002F00082E390E00E94CA010E949802882309F0DC
:10030000B7CFA89A0E949C02882309F0B7CFA99A78
:100310000E94A102882309F0B7CFAA9A0E94A702DF
:10032000882309F0B7CFAB9AB6CF1092700084E85B
:1003300090E00E942C03E0918400F09185001281EE
:100340006081CDCF2AE030E04EE162E384E890E0C6
:100350000E946004CDCF84B38FEF84BB95B385BB7F
:10036000BC9AC49A0895809585BB089518161906FD
:1003700084F460E070E040E058E420E0FA01319756
:10038000F1F72F5F2436D1F76F5F7F4F681779073A
:10039000A4F308951816190664F420E030E043E34E
:1003A00057E0FA013197F1F72F5F3F4F28173907D0
:1003B000C4F30895FC011182108282E390E09383DC
:1003C0008283758364835783468320870895FC0165
:1003D0001182108282E390E0938382837583648329
:1003E0005783468320870895DC011496ED91FC9194
:1003F0001597118210820895DC011496ED91FC91FD
:100400001597462F552747FD50959A0157FD3AC03D
:10041000C901880F991F880F991F880F991F220FF4
:10042000331F820F931F918380831616ACF41696A8
:10043000ED91FC911797208181E090E018960C9047
:10044000189702C0880F991F0A94E2F780958223BB
:1004500080834D935C9308956623D9F31696ED91AE
:10046000FC911797208181E090E018960C901897E6
:1004700002C0880F991F0A94E2F7282B20834D931E
:100480005C93089522273327241B350BC1CF8C9A08
:100490008D9A8F9A8E9A83EA8FBD8FB580648FBDB7
:1004A0008FB580618FBD1BBC1ABC19BC18BC1EBCAB
:1004B0008EB582608EBD9798969808959298929A7C
:1004C0009398939A089580B38695869580958170C8
:1004D000089580B386958695869580958170089558
:1004E0008299FECF08958399FECF0895B898B99860
:1004F000BA98BB98C098C198C298C3980895B0990B
:1005000015C092E0B19904C083E0989F902D11240A
:10051000B29904C085E0989F902D1124B39904C02E
:1005200087E0989F902D1124892F089591E0EACFBC
:1005300086B380958170089586B386958095817085
:10054000089586B38695869580958170089586B3C3
:100550008695869586958095817008958AB3807C6E
:100560008ABB8BB3807C8BBB80E687B98DEC86B968
:1005700081E0809360007894089580918E000895C2
:1005800080918F000895809190000895809191004E
:1005900008958091920008958091930008951F928C
:1005A0000F920FB60F9211248F93809160008330C9
:1005B00009F440C0843050F08530B1F1853000F549
:1005C00085B18093910084E687B907C0813031F10D
:1005D0008230F1F086E080936000809160008F5F50
:1005E0008093600080916000873018F081E08093F4
:1005F0006000369A8F910F900FBE0F901F90189544
:10060000863041F785B18093930080E687B9E5CFC6
:1006100085B180938F0082E687B9DFCF85B1809363
:100620008E0081E687B9D9CF85B18093920085E6A7
:1006300087B9D3CF85B18093900083E687B9CDCFBA
:10064000FC0113821282118210820895FC01138230
:100650001282118210820895CF92DF92EF92FF9260
:100660000F931F93DF93CF93CDB7DEB72C970FB6C1
:10067000F894DEBF0FBECDBF7C01DC01ED91FC9193
:10068000309739F16E010894C11CD11C9601AF015D
:1006900086E0DA010D90AD01D9010D929D018150E6
:1006A000C1F706811781CF010E945208F70111831B
:1006B0000083DE011796F60186E001900D928150CD
:1006C000E1F72F81388549855A856B857C8590E0D7
:1006D00000C02C960FB6F894DEBF0FBECDBFCF91F1
:1006E000DF911F910F91FF90EF90DF90CF900895D1
:1006F000CF92DF92EF92FF920F931F93DF93CF93EE
:10070000CDB7DEB72C970FB6F894DEBF0FBECDBFC6
:100710008C01FC0180819181892BF1F06E0108949C
:10072000C11CD11C87E0E82EF12CEC0EFD1EC80187
:100730000E942C032F83388749875A876B877C87D1
:10074000D601F70186E001900D928150E1F7F801A2
:1007500080819181892B59F72C960FB6F894DEBFD2
:100760000FBECDBFCF91DF911F910F91FF90EF9002
:10077000DF90CF9008950E94780308950E94780337
:100780000895AF92BF92CF92DF92EF92FF920F93B4
:100790001F93DF93CF93CDB7DEB72C970FB6F894A6
:1007A000DEBF0FBECDBF6C01DC01ED91FC91309737
:1007B000A1F184819581861B970B958384835E01CB
:1007C0000894A11CB11C9501AF0186E0DA010D90DF
:1007D000AD01D9010D929D018150C1F7ED80FE80E0
:1007E0001E141F0444F006811781CF010E94520895
:1007F000F60111830083FE82ED82DE011796F5017A
:1008000086E001900D928150E1F72F81388549856E
:100810005A856B857C8590E000C02C960FB6F894C5
:10082000DEBF0FBECDBFCF91DF911F910F91FF9023
:10083000EF90DF90CF90BF90AF9008950F931F93EC
:10084000DF93CF9300D000D000D0CDB7DEB78C01BE
:1008500029833A834B835C836D837E8388E090E0B9
:100860000E94A807DC01F80180819181892B29F180
:10087000F80182819381FC01B783A6839D01AE01BB
:100880004F5F5F4F86E0FA010190AF01F9010192DD
:100890009F018150C1F717961C921E921697F8017E
:1008A000B383A28326960FB6F894DEBF0FBECDBFEA
:1008B000CF91DF911F910F910895B183A083DECF77
:1008C000DF93CF9300D000D000D0CDB7DEB777272D
:1008D00067FD7095E62F7A836983552747FD50950C
:1008E0005C834B83622F2D833E832E2F3A815C8164
:1008F0007E810E941E0426960FB6F894DEBF0FBEBE
:10090000CDBFCF91DF910895A0E2B0E0EAE8F4E036
:100910000C94AA0869837A838B839C832D833E83FE
:100920004F835887BE01675F7F4FCE0101960E94BB
:10093000D706BE016F5E7F4FCE0105960E94D70697
:100940009985923088F089898230C8F0943019F402
:10095000823051F404C0843029F4923081F481E66D
:1009600090E0C6C0923049F420E09A858A899813B5
:1009700021E02A87CE010996BBC0823049F420E0ED
:100980009A858A89981321E02A8BCE014196B0C0BE
:100990002D843E844F8458886D887E888F88988CFB
:1009A000EE24FF248701AA24BB24650140E050E027
:1009B00060E070E0E0E0F0E0C10181709070892BB0
:1009C000E9F0E60CF71C081D191D9A01AB012A0D70
:1009D0003B1D4C1D5D1D80E090E0A0E0B0E0E61402
:1009E000F7040805190520F481E090E0A0E0B0E0EC
:1009F000BA01A901480F591F6A1F7B1FAA0CBB1C13
:100A0000CC1CDD1C97FE08C081E090E0A0E0B0E0C7
:100A1000A82AB92ACA2ADB2A3196E032F10549F020
:100A2000660C771C881C991C56944794379427941D
:100A3000C3CFFA85EA892B893C898B859C85280F51
:100A4000391F2E5F3F4F17C0CA0181709070892BEC
:100A500061F016950795F794E79480E090E0A0E0A8
:100A6000B0E8E82AF92A0A2B1B2B7695679557954B
:100A700047952F5F3F4F77FDE7CF0CC0440F551FC1
:100A8000661F771F17FD4160EE0CFF1C001F111F32
:100A900021503040403090E0590790E0690790E4E1
:100AA000790760F32B8F3C8FDB01CA018F77907041
:100AB000A070B07080349105A105B10561F447FDC7
:100AC0000AC0E114F1040105110529F0405C5F4FF3
:100AD0006F4F7F4F40781A8EFE1711F081E08A8F9A
:100AE0004D8F5E8F6F8F78A383E0898FCE014996FB
:100AF0000E940206A096E2E10C94C608A8E1B0E0CC
:100B0000E4E8F5E00C94B60869837A838B839C83D0
:100B10002D833E834F83588789E0E82EF12CEC0E1D
:100B2000FD1EB701CE0101960E94D7068E010F5E11
:100B30001F4FB801CE0105960E94D70689858230E5
:100B400040F08989823028F0B801C7010E944F0720
:100B500001C08FEF6896E6E00C94D208ACE0B0E0FC
:100B6000E4EBF5E00C94BA0869837A838B839C8369
:100B7000BE016B5F7F4FCE0101960E94D7068D812B
:100B8000823061F1823050F1843021F48E818823EB
:100B900051F12EC02F81388537FD20C06E812F3155
:100BA00031051CF06623F9F023C08EE190E0821B32
:100BB000930B29853A854B855C8504C056954795EE
:100BC000379527958A95D2F76623B1F050954095D1
:100BD000309521953F4F4F4F5F4F0EC020E030E0E2
:100BE00040E050E009C02FEF3FEF4FEF5FE704C058
:100BF00020E030E040E050E8B901CA012C96E2E084
:100C00000C94D608DF92EF92FF920F931F93FC0192
:100C1000E480F58006811781D1808081823048F49C
:100C200080E090E0A0E1B0E0E82AF92A0A2B1B2B33
:100C3000A5C0843009F49FC0823021F4EE24FF2443
:100C4000870105C0E114F1040105110519F4E0E084
:100C5000F0E096C0628173819FEF623879070CF0F3
:100C60005BC022E83FEF261B370B2A3131052CF001
:100C700020E030E040E050E02AC0B801A701022E99
:100C800004C076956795579547950A94D2F781E009
:100C900090E0A0E0B0E004C0880F991FAA1FBB1F1E
:100CA0002A95D2F70197A109B1098E219F21A0238E
:100CB000B1230097A105B10521F081E090E0A0E00B
:100CC000B0E09A01AB01282B392B4A2B5B2BDA01C0
:100CD000C9018F779070A070B07080349105A10524
:100CE000B10539F427FF09C0205C3F4F4F4F5F4FDC
:100CF00004C0215C3F4F4F4F5F4FE0E0F0E02030F9
:100D0000A0E03A07A0E04A07A0E45A0710F0E1E0AB
:100D1000F0E079018A0127C06038710564F5FB01B4
:100D2000E158FF4FD801C7018F779070A070B07065
:100D300080349105A105B10539F4E7FE0DC080E4CA
:100D400090E0A0E0B0E004C08FE390E0A0E0B0E06D
:100D5000E80EF91E0A1F1B1F17FF05C01695079501
:100D6000F794E794319687E016950795F794E79402
:100D70008A95D1F705C0EE24FF248701EFEFF0E05C
:100D80006E2F679566276795902F9F77D794DD2400
:100D9000D7948E2F8695492F462B582F5D29B70162
:100DA000CA011F910F91FF90EF90DF900895FC0111
:100DB000DB01408151812281622F6F7770E0221F19
:100DC0002227221F9381892F880F822B282F30E022
:100DD000991F9927991F11969C93119721153105F9
:100DE000A9F5411551056105710511F482E037C07F
:100DF00082E89FEF13969C938E9312979A01AB0112
:100E000067E0220F331F441F551F6A95D1F783E017
:100E10008C930DC0220F331F441F551F12968D91C6
:100E20009C911397019713969C938E931297203061
:100E300080E0380780E0480780E4580758F31496AC
:100E40002D933D934D935C93179708952F3F310554
:100E500079F4411551056105710519F484E08C930D
:100E6000089564FF03C081E08C9312C01C9210C0EF
:100E70002F57304013963C932E93129783E08C9318
:100E800087E0440F551F661F771F8A95D1F770645E
:100E900014964D935D936D937C93179708951F93CC
:100EA000DC01FB019C91923008F447C080818230C4
:100EB00008F443C0943051F411961C91843099F594
:100EC0008181682F70E0611B71093FC0843021F07F
:100ED000923031F48230B9F18181882389F12DC0BB
:100EE00011961C9111978230F1F081811817D9F475
:100EF00012962D913C9113978281938182179307CB
:100F000094F028173907BCF014968D919D910D909F
:100F1000BC91A02D2481358146815781281739073E
:100F20004A075B0718F4112341F00AC082179307A0
:100F3000A407B50740F4112319F061E070E005C083
:100F40006FEF7FEF02C060E070E0CB011F9108956A
:100F5000CF93DF93BC018230910510F462E070E022
:100F6000A0919600B0919700ED01E0E0F0E040E044
:100F700050E021C0888199818617970769F48A819A
:100F80009B81309719F09383828304C090939700DC
:100F900080939600FE0134C06817790738F4411534
:100FA000510519F08417950708F4AC01FE018A81F8
:100FB0009B819C01E9012097E9F641155105A9F1B2
:100FC000CA01861B970B049708F4BA01E0E0F0E031
:100FD0002AC08D919C91119784179507F9F4641795
:100FE000750781F412968D919C911397309719F0A3
:100FF0009383828304C09093970080939600FD01B1
:1010000032964CC0CA01861B970BFD01E80FF91FF1
:101010006193719302978D939C9340C0FD018281EF
:1010200093819C01D9011097A1F680919400909131
:101030009500892B41F480916B0090916C00909306
:1010400095008093940040916D0050916E00411581
:10105000510541F44DB75EB78091690090916A00E7
:10106000481B590B2091940030919500CA01821BB6
:10107000930B8617970780F0AB014E5F5F4F841785
:10108000950750F0420F531F5093950040939400E2
:10109000F9016193719302C0E0E0F0E0CF01DF91CC
:1010A000CF910895CF93DF93009709F450C0EC01DE
:1010B00022971B821A82A0919600B09197001097F8
:1010C00009F140E050E0AC17BD0708F1BB83AA83EB
:1010D000FE0121913191E20FF31FAE17BF0779F4A2
:1010E0008D919C911197280F391F2E5F3F4F3983A7
:1010F000288312968D919C9113979B838A83411527
:10110000510571F4D0939700C093960020C01296B9
:101110008D919C911397AD01009711F0DC01D3CF15
:10112000FA01D383C28321913191E20FF31FCE17CD
:10113000DF0769F488819981280F391F2E5F3F4F9F
:10114000FA01318320838A819B8193838283DF919B
:10115000CF9108952F923F924F925F926F927F921C
:101160008F929F92AF92BF92CF92DF92EF92FF92B7
:101170000F931F93CF93DF93CDB7DEB7CA1BDB0B63
:101180000FB6F894DEBF0FBECDBF09942A88398808
:1011900048885F846E847D848C849B84AA84B9840F
:1011A000C884DF80EE80FD800C811B81AA81B9811B
:1011B000CE0FD11D0FB6F894DEBF0FBECDBFED012F
:1011C0000895EE0FFF1F0590F491E02D099410E0B3
:1011D000C6E5D0E004C0FE010E94E3082296C835AF
:0811E000D107C9F7F894FFCF15
:1011E800010000000000000000200098000000003E
:00000001FF
